02RETORNO01COBRANCA       31541308194113081941CEFOP - CENTRO DE FORMACAO PRO033SANTANDER      29072500000000000113488                                                                                                                                                                                                                                                                                  831000001
1021243548800016931541308194113081941                         03226140                                     509290725322614    0322614000          30062500000000125900333154206000000000000000000000000000000000000000000000000000000000000000000000000000000000000000000000000000000000000000000000 N 290725DAIANA DA COSTA SILVA                00000000000000000000000000000000000000000C           831000002
1021243548800016931541308194113081941                         03226530                                     509290725322653    0322653000          30062500000000125900333154206000000000000000000000000000000000000000000000000000000000000000000000000000000000000000000000000000000000000000000000 N 290725ISAC DA SILVA                        00000000000000000000000000000000000000000C           831000003
1021243548800016931541308194113081941                         03242528                                     509290725324252    0324252800          30062500000000125900333154206000000000000000000000000000000000000000000000000000000000000000000000000000000000000000000000000000000000000000000000 N 290725EVANIA RODRIGUES DA SILVA            00000000000000000000000000000000000000000C           831000004
1021243548800016931541308194113081941                         03242919                                     509290725324291    0324291900          30062500000000125900333154206000000000000000000000000000000000000000000000000000000000000000000000000000000000000000000000000000000000000000000000 N 290725ANDREIA DE PAULA BRAULIO             00000000000000000000000000000000000000000C           831000005
1021243548800016931541308194113081941                         03244768                                     509290725324476    0324476800          30062500000000125900333154206000000000000000000000000000000000000000000000000000000000000000000000000000000000000000000000000000000000000000000000 N 290725MARIA ROZELI SILVA BARBOSA           00000000000000000000000000000000000000000C           831000006
1021243548800016931541308194113081941                         03246850                                     509290725324685    0324685000          30062500000000125900333154206000000000000000000000000000000000000000000000000000000000000000000000000000000000000000000000000000000000000000000000 N 290725ANDREA DE PAULA                      00000000000000000000000000000000000000000C           831000007
1021243548800016931541308194113081941                         03247341                                     509290725324734    0324734100          30062500000000125900333154206000000000000000000000000000000000000000000000000000000000000000000000000000000000000000000000000000000000000000000000 N 290725RENATA BORGES DO NASCIMENTO          00000000000000000000000000000000000000000C           831000008
1021243548800016931541308194113081941                         03247473                                     509290725324747    0324747300          30062500000000125900333154206000000000000000000000000000000000000000000000000000000000000000000000000000000000000000000000000000000000000000000000 N 290725ROBSON SIQUEIRA SOUZA                00000000000000000000000000000000000000000C           831000009
1021243548800016931541308194113081941                         03248259                                     509290725324825    0324825900          30062500000000125900333154206000000000000000000000000000000000000000000000000000000000000000000000000000000000000000000000000000000000000000000000 N 290725ANGELA MARIA LEONARDO ANTONIO        00000000000000000000000000000000000000000C           831000010
1021243548800016931541308194113081941                         03248372                                     509290725324837    0324837200          30062500000000125900333154206000000000000000000000000000000000000000000000000000000000000000000000000000000000000000000000000000000000000000000000 N 290725ROSELAINE COUTO DA SILVA             00000000000000000000000000000000000000000C           831000011
1021243548800016931541308194113081941                         03248615                                     509290725324861    0324861500          30062500000000125900333154206000000000000000000000000000000000000000000000000000000000000000000000000000000000000000000000000000000000000000000000 N 290725JOSE FRANCISCO DA SILVA FILHO        00000000000000000000000000000000000000000C           831000012
1021243548800016931541308194113081941                         03248976                                     509290725324897    0324897600          30062500000000125900333154206000000000000000000000000000000000000000000000000000000000000000000000000000000000000000000000000000000000000000000000 N 290725ANGELICA DE SOUZA XAVIER DE JESUS AM 00000000000000000000000000000000000000000C           831000013
1021243548800016931541308194113081941                         03249212                                     509290725324921    0324921200          30062500000000125900333154206000000000000000000000000000000000000000000000000000000000000000000000000000000000000000000000000000000000000000000000 N 290725ANGELICA DE SOUZA XAVIER DE JESUS AM 00000000000000000000000000000000000000000C           831000014
1021243548800016931541308194113081941                         03250610                                     509290725325061    0325061000          30062500000000125900333154206000000000000000000000000000000000000000000000000000000000000000000000000000000000000000000000000000000000000000000000 N 290725ADRIANA COSTA DE SOUZA               00000000000000000000000000000000000000000C           831000015
1021243548800016931541308194113081941                         03250873                                     509290725325087    0325087300          30062500000000125900333154206000000000000000000000000000000000000000000000000000000000000000000000000000000000000000000000000000000000000000000000 N 290725PAULO HENRIQUE SANTANA               00000000000000000000000000000000000000000C           831000016
1021243548800016931541308194113081941                         03251276                                     509290725325127    0325127600          30062500000000125900333154206000000000000000000000000000000000000000000000000000000000000000000000000000000000000000000000000000000000000000000000 N 290725FABIANA NUNES DE MATOS               00000000000000000000000000000000000000000C           831000017
1021243548800016931541308194113081941                         03251675                                     509290725325167    0325167500          30062500000000125900333154206000000000000000000000000000000000000000000000000000000000000000000000000000000000000000000000000000000000000000000000 N 290725SANDRA DA SILVA GAMA                 00000000000000000000000000000000000000000C           831000018
1021243548800016931541308194113081941                         03252590                                     509290725325259    0325259000          30062500000000125900333154206000000000000000000000000000000000000000000000000000000000000000000000000000000000000000000000000000000000000000000000 N 290725LEILA SILVA VIANA LESSA              00000000000000000000000000000000000000000C           831000019
1021243548800016931541308194113081941                         03254640                                     509290725325464    0325464000          30062500000000125900333154206000000000000000000000000000000000000000000000000000000000000000000000000000000000000000000000000000000000000000000000 N 290725ANGELA MARIA PEREIRA BASTOS          00000000000000000000000000000000000000000C           831000020
1021243548800016931541308194113081941                         03254763                                     509290725325476    0325476300          30062500000000125900333154206000000000000000000000000000000000000000000000000000000000000000000000000000000000000000000000000000000000000000000000 N 290725NIVIA MARIA WERDAN CURTY ESTEPHANELI 00000000000000000000000000000000000000000C           831000021
1021243548800016931541308194113081941                         03254887                                     509290725325488    0325488700          30062500000000125900333154206000000000000000000000000000000000000000000000000000000000000000000000000000000000000000000000000000000000000000000000 N 290725NATALI PONCIANO DA SILVA             00000000000000000000000000000000000000000C           831000022
1021243548800016931541308194113081941                         03255000                                     509290725325500    0325500000          30062500000000125900333154206000000000000000000000000000000000000000000000000000000000000000000000000000000000000000000000000000000000000000000000 N 290725NELMA BORGES DA SILVA                00000000000000000000000000000000000000000C           831000023
1021243548800016931541308194113081941                         03255123                                     509290725325512    0325512300          30062500000000125900333154206000000000000000000000000000000000000000000000000000000000000000000000000000000000000000000000000000000000000000000000 N 290725GERSSILANE SILVA DIAS                00000000000000000000000000000000000000000C           831000024
1021243548800016931541308194113081941                         03255360                                     509290725325536    0325536000          30062500000000125900333154206000000000000000000000000000000000000000000000000000000000000000000000000000000000000000000000000000000000000000000000 N 290725ERNECY PERES DE SOUZA                00000000000000000000000000000000000000000C           831000025
1021243548800016931541308194113081941                         03255581                                     509290725325558    0325558100          30062500000000125900333154206000000000000000000000000000000000000000000000000000000000000000000000000000000000000000000000000000000000000000000000 N 290725WENDERSON RODRIGUES DIAS DE SOUZA    00000000000000000000000000000000000000000C           831000026
1021243548800016931541308194113081941                         03288498                                     509290725328849    0328849800          30062500000000125900333154206000000000000000000000000000000000000000000000000000000000000000000000000000000000000000000000000000000000000000000000 N 290725CLEBSON FELIPE NEVES                 00000000000000000000000000000000000000000C           831000027
1021243548800016931541308194113081941                         03289532                                     509290725328953    0328953200          30062500000000125900333154206000000000000000000000000000000000000000000000000000000000000000000000000000000000000000000000000000000000000000000000 N 290725GILBERTO SOARES DA SILVA             00000000000000000000000000000000000000000C           831000028
1021243548800016931541308194113081941                         03293483                                     509290725329348    0329348300          30062500000000125900333154206000000000000000000000000000000000000000000000000000000000000000000000000000000000000000000000000000000000000000000000 N 290725LEIDE POLIANE GOMES                  00000000000000000000000000000000000000000C           831000029
1021243548800016931541308194113081941                         03293874                                     509290725329387    0329387400          30062500000000125900333154206000000000000000000000000000000000000000000000000000000000000000000000000000000000000000000000000000000000000000000000 N 290725VALDECY SEBASTIAO DE AZEVEDO         00000000000000000000000000000000000000000C           831000030
1021243548800016931541308194113081941                         03294005                                     509290725329400    0329400500          30062500000000125900333154206000000000000000000000000000000000000000000000000000000000000000000000000000000000000000000000000000000000000000000000 N 290725EURICO RAMOS DOS REIS                00000000000000000000000000000000000000000C           831000031
1021243548800016931541308194113081941                         03294137                                     509290725329413    0329413700          30062500000000125900333154206000000000000000000000000000000000000000000000000000000000000000000000000000000000000000000000000000000000000000000000 N 290725SIMONE SOARES MARTINS FAGUNDES       00000000000000000000000000000000000000000C           831000032
1021243548800016931541308194113081941                         03294390                                     509290725329439    0329439000          30062500000000125900333154206000000000000000000000000000000000000000000000000000000000000000000000000000000000000000000000000000000000000000000000 N 290725KARINE MARQUES SOARES ALVES MAIA     00000000000000000000000000000000000000000C           831000033
1021243548800016931541308194113081941                         03294528                                     509290725329452    0329452800          30062500000000125900333154206000000000000000000000000000000000000000000000000000000000000000000000000000000000000000000000000000000000000000000000 N 290725LAZARO SAMUEL DA SILVA BENFICA       00000000000000000000000000000000000000000C           831000034
1021243548800016931541308194113081941                         03294650                                     509290725329465    0329465000          30062500000000125900333154206000000000000000000000000000000000000000000000000000000000000000000000000000000000000000000000000000000000000000000000 N 290725ROBSON RABELLO DOS SANTOS            00000000000000000000000000000000000000000C           831000035
1021243548800016931541308194113081941                         03296105                                     509290725329610    0329610500          30062500000000125900333154206000000000000000000000000000000000000000000000000000000000000000000000000000000000000000000000000000000000000000000000 N 290725UANDERSON IBANES DOS SANTOS          00000000000000000000000000000000000000000C           831000036
1021243548800016931541308194113081941                         03296237                                     509290725329623    0329623700          30062500000000125900333154206000000000000000000000000000000000000000000000000000000000000000000000000000000000000000000000000000000000000000000000 N 290725ILMA CARDOSO MOREIRA                 00000000000000000000000000000000000000000C           831000037
1021243548800016931541308194113081941                         03296490                                     509290725329649    0329649000          30062500000000125900333154206000000000000000000000000000000000000000000000000000000000000000000000000000000000000000000000000000000000000000000000 N 290725ANA CAROLINA DOS SANTOS              00000000000000000000000000000000000000000C           831000038
1021243548800016931541308194113081941                         03296628                                     509290725329662    0329662800          30062500000000125900333154206000000000000000000000000000000000000000000000000000000000000000000000000000000000000000000000000000000000000000000000 N 290725ALESANDRA NUNES DE CARVALHO          00000000000000000000000000000000000000000C           831000039
1021243548800016931541308194113081941                         03296750                                     509290725329675    0329675000          30062500000000125900333154206000000000000000000000000000000000000000000000000000000000000000000000000000000000000000000000000000000000000000000000 N 290725GILBERTO DA SILVA DE ALMEIDA         00000000000000000000000000000000000000000C           831000040
1021243548800016931541308194113081941                         03297012                                     509290725329701    0329701200          30062500000000125900333154206000000000000000000000000000000000000000000000000000000000000000000000000000000000000000000000000000000000000000000000 N 290725MIRIAN GONCALVES FERNANDES           00000000000000000000000000000000000000000C           831000041
1021243548800016931541308194113081941                         03297144                                     509290725329714    0329714400          30062500000000125900333154206000000000000000000000000000000000000000000000000000000000000000000000000000000000000000000000000000000000000000000000 N 290725CLAUDINEI PEREIRA DE MEDEIROS        00000000000000000000000000000000000000000C           831000042
1021243548800016931541308194113081941                         03298442                                     509290725329844    0329844200          30062500000000125900333154206000000000000000000000000000000000000000000000000000000000000000000000000000000000000000000000000000000000000000000000 N 290725ROBERTO CARLOS PEREIRA DA FONSECA    00000000000000000000000000000000000000000C           831000043
1021243548800016931541308194113081941                         03299350                                     509290725329935    0329935000          30062500000000125900333154206000000000000000000000000000000000000000000000000000000000000000000000000000000000000000000000000000000000000000000000 N 290725MARIA ALICE DA SILVA                 00000000000000000000000000000000000000000C           831000044
1021243548800016931541308194113081941                         03299856                                     509290725329985    0329985600          30062500000000125900333154206000000000000000000000000000000000000000000000000000000000000000000000000000000000000000000000000000000000000000000000 N 290725LIS PEREIRA SILVA                    00000000000000000000000000000000000000000C           831000045
1021243548800016931541308194113081941                         03299988                                     509290725329998    0329998800          30062500000000125900333154206000000000000000000000000000000000000000000000000000000000000000000000000000000000000000000000000000000000000000000000 N 290725HILVAN SOUZA LIMA                    00000000000000000000000000000000000000000C           831000046
1021243548800016931541308194113081941                         03300110                                     509290725330011    0330011000          30062500000000125900333154206000000000000000000000000000000000000000000000000000000000000000000000000000000000000000000000000000000000000000000000 N 290725ZENILDA DE SOUZA LIMA                00000000000000000000000000000000000000000C           831000047
1021243548800016931541308194113081941                         03300501                                     509290725330050    0330050100          30062500000000125900333154206000000000000000000000000000000000000000000000000000000000000000000000000000000000000000000000000000000000000000000000 N 290725MARILAN PEREIRA SILVA                00000000000000000000000000000000000000000C           831000048
1021243548800016931541308194113081941                         03300633                                     509290725330063    0330063300          30062500000000125900333154206000000000000000000000000000000000000000000000000000000000000000000000000000000000000000000000000000000000000000000000 N 290725MARIA VERONEIDE DE OLIVEIRA FEITOSA  00000000000000000000000000000000000000000C           831000049
1021243548800016931541308194113081941                         03300765                                     509290725330076    0330076500          30062500000000125900333154206000000000000000000000000000000000000000000000000000000000000000000000000000000000000000000000000000000000000000000000 N 290725GILMARA DE JESUS SANTOS              00000000000000000000000000000000000000000C           831000050
1021243548800016931541308194113081941                         03301150                                     509290725330115    0330115000          30062500000000125900333154206000000000000000000000000000000000000000000000000000000000000000000000000000000000000000000000000000000000000000000000 N 290725MARIVALDO SOUZA SANTANA              00000000000000000000000000000000000000000C           831000051
1021243548800016931541308194113081941                         03301672                                     509290725330167    0330167200          30062500000000125900333154206000000000000000000000000000000000000000000000000000000000000000000000000000000000000000000000000000000000000000000000 N 290725CLEBER PEREIRA SANTOS                00000000000000000000000000000000000000000C           831000052
1021243548800016931541308194113081941                         03301800                                     509290725330180    0330180000          30062500000000125900333154206000000000000000000000000000000000000000000000000000000000000000000000000000000000000000000000000000000000000000000000 N 290725NAIANE CARVALHO VIEGAS               00000000000000000000000000000000000000000C           831000053
1021243548800016931541308194113081941                         03302067                                     509290725330206    0330206700          30062500000000125900333154206000000000000000000000000000000000000000000000000000000000000000000000000000000000000000000000000000000000000000000000 N 290725TANIA SOUZA DOS SANTOS               00000000000000000000000000000000000000000C           831000054
1021243548800016931541308194113081941                         03302326                                     509290725330232    0330232600          30062500000000125900333154206000000000000000000000000000000000000000000000000000000000000000000000000000000000000000000000000000000000000000000000 N 290725ISLANE RODRIGUES COSTA               00000000000000000000000000000000000000000C           831000055
1021243548800016931541308194113081941                         03302458                                     509290725330245    0330245800          30062500000000125900333154206000000000000000000000000000000000000000000000000000000000000000000000000000000000000000000000000000000000000000000000 N 290725BARBARA SANTOS CARDOSO               00000000000000000000000000000000000000000C           831000056
1021243548800016931541308194113081941                         03302717                                     509290725330271    0330271700          30062500000000125900333154206000000000000000000000000000000000000000000000000000000000000000000000000000000000000000000000000000000000000000000000 N 290725MAIRA SANTOS BOTELHO                 00000000000000000000000000000000000000000C           831000057
1021243548800016931541308194113081941                         03302849                                     509290725330284    0330284900          30062500000000125900333154206000000000000000000000000000000000000000000000000000000000000000000000000000000000000000000000000000000000000000000000 N 290725ROSANGELA PEREIRA LIMA               00000000000000000000000000000000000000000C           831000058
1021243548800016931541308194113081941                         03302970                                     509290725330297    0330297000          30062500000000125900333154206000000000000000000000000000000000000000000000000000000000000000000000000000000000000000000000000000000000000000000000 N 290725ROSANGELA PEREIRA LIMA               00000000000000000000000000000000000000000C           831000059
1021243548800016931541308194113081941                         03303101                                     509290725330310    0330310100          30062500000000125900333154206000000000000000000000000000000000000000000000000000000000000000000000000000000000000000000000000000000000000000000000 N 290725ANDRIELE DOS SANTOS CRUZ             00000000000000000000000000000000000000000C           831000060
1021243548800016931541308194113081941                         03303233                                     509290725330323    0330323300          30062500000000125900333154206000000000000000000000000000000000000000000000000000000000000000000000000000000000000000000000000000000000000000000000 N 290725ANDRIELE DOS SANTOS CRUZ             00000000000000000000000000000000000000000C           831000061
1021243548800016931541308194113081941                         03309649                                      03290725          0330964902051       01010100000000000000000000001000000000000000000000000000000000000000000000000000000000000000000000000000000000000000000000000000000000000000000000 N 290725                                     00000000000000000000000000000000000000000C           831000062
1021243548800016931541308194113081941                         03309657                                     503290725330965    0330965702053       10062500000000125900333154206000000000000000000000000000000000000000000000000000000000000000000000000000000000000000000000000000000000000000000000 N 290725ANGELA MARIA SOUZA BORGES            00000000000000000000000000000000000000000C           831000063
1021243548800016931541308194113081941                         03327744                                     509290725332774    0332774400          30062500000000125900333154206000000000000000000000000000000000000000000000000000000000000000000000000000000000000000000000000000000000000000000000 N 290725MARIA DE FATIMA DA LAPA              00000000000000000000000000000000000000000C           831000064
1021243548800016931541308194113081941                         03328082                                     509290725332808    0332808200          30062500000000125900333154206000000000000000000000000000000000000000000000000000000000000000000000000000000000000000000000000000000000000000000000 N 290725MARIA ELIANE VIEIRA DA SILVA         00000000000000000000000000000000000000000C           831000065
1021243548800016931541308194113081941                         03328341                                     509290725332834    0332834100          30062500000000125900333154206000000000000000000000000000000000000000000000000000000000000000000000000000000000000000000000000000000000000000000000 N 290725MARIA ELIANE VIEIRA DA SILVA         00000000000000000000000000000000000000000C           831000066
1021243548800016931541308194113081941                         03328732                                     509290725332873    0332873200          30062500000000125900333154206000000000000000000000000000000000000000000000000000000000000000000000000000000000000000000000000000000000000000000000 N 290725MARIA ELIANE VIEIRA DA SILVA         00000000000000000000000000000000000000000C           831000067
1021243548800016931541308194113081941                         03329380                                     509290725332938    0332938000          30062500000000125900333154206000000000000000000000000000000000000000000000000000000000000000000000000000000000000000000000000000000000000000000000 N 290725JUSSARA FELIX DE MENEZES             00000000000000000000000000000000000000000C           831000068
1021243548800016931541308194113081941                         03329755                                     509290725332975    0332975500          30062500000000125900333154206000000000000000000000000000000000000000000000000000000000000000000000000000000000000000000000000000000000000000000000 N 290725JOSE ARNALDO SANTOS                  00000000000000000000000000000000000000000C           831000069
1021243548800016931541308194113081941                         03330516                                     509290725333051    0333051600          30062500000000125900333154206000000000000000000000000000000000000000000000000000000000000000000000000000000000000000000000000000000000000000000000 N 290725FLAVIA LUCAS DE JESUS                00000000000000000000000000000000000000000C           831000070
1021243548800016931541308194113081941                         03331296                                     509290725333129    0333129600          30062500000000125900333154206000000000000000000000000000000000000000000000000000000000000000000000000000000000000000000000000000000000000000000000 N 290725MARIA LUCIANA CALAZANS DOS SANTOS    00000000000000000000000000000000000000000C           831000071
1021243548800016931541308194113081941                         03336697                                     509290725333669    0333669700          30062500000000125900333154206000000000000000000000000000000000000000000000000000000000000000000000000000000000000000000000000000000000000000000000 N 290725IVETE PEREIRA ROSA DA SILVA          00000000000000000000000000000000000000000C           831000072
1021243548800016931541308194113081941                         03340082                                     509290725334008    0334008200          30062500000000125900333154206000000000000000000000000000000000000000000000000000000000000000000000000000000000000000000000000000000000000000000000 N 290725JOHANA CAROLINA PACHECO PEREZ        00000000000000000000000000000000000000000C           831000073
1021243548800016931541308194113081941                         03340210                                     509290725334021    0334021000          30062500000000125900333154206000000000000000000000000000000000000000000000000000000000000000000000000000000000000000000000000000000000000000000000 N 290725ROSIANE PINTO ARAUJO                 00000000000000000000000000000000000000000C           831000074
1021243548800016931541308194113081941                         03340341                                     509290725334034    0334034100          30062500000000125900333154206000000000000000000000000000000000000000000000000000000000000000000000000000000000000000000000000000000000000000000000 N 290725ROSANGELA ALVES ABREU                00000000000000000000000000000000000000000C           831000075
1021243548800016931541308194113081941                         03340864                                     509290725334086    0334086400          30062500000000125900333154206000000000000000000000000000000000000000000000000000000000000000000000000000000000000000000000000000000000000000000000 N 290725LUCIANA PEREIRA FARIAS               00000000000000000000000000000000000000000C           831000076
1021243548800016931541308194113081941                         03341119                                     509290725334111    0334111900          30062500000000125900333154206000000000000000000000000000000000000000000000000000000000000000000000000000000000000000000000000000000000000000000000 N 290725GINETTE ETIENNE                      00000000000000000000000000000000000000000C           831000077
1021243548800016931541308194113081941                         03343618                                     509290725334361    0334361800          30062500000000125900333154206000000000000000000000000000000000000000000000000000000000000000000000000000000000000000000000000000000000000000000000 N 290725SUZIANE MARIA CASTRO DE OLIVEIRA     00000000000000000000000000000000000000000C           831000078
1021243548800016931541308194113081941                         03343871                                     509290725334387    0334387100          30062500000000125900333154206000000000000000000000000000000000000000000000000000000000000000000000000000000000000000000000000000000000000000000000 N 290725 ELBA TEIXEIRA NASCIMENTO            00000000000000000000000000000000000000000C           831000079
1021243548800016931541308194113081941                         03344002                                     509290725334400    0334400200          30062500000000125900333154206000000000000000000000000000000000000000000000000000000000000000000000000000000000000000000000000000000000000000000000 N 290725MARIA DE FATIMA DOS SANTOS FERNANDES 00000000000000000000000000000000000000000C           831000080
1021243548800016931541308194113081941                         03344266                                     509290725334426    0334426600          30062500000000125900333154206000000000000000000000000000000000000000000000000000000000000000000000000000000000000000000000000000000000000000000000 N 290725LANA CRISTINA VALE CARVALHO          00000000000000000000000000000000000000000C           831000081
1021243548800016931541308194113081941                         03344525                                     509290725334452    0334452500          30062500000000125900333154206000000000000000000000000000000000000000000000000000000000000000000000000000000000000000000000000000000000000000000000 N 290725LUCIANA PEREIRA FARIAS               00000000000000000000000000000000000000000C           831000082
1021243548800016931541308194113081941                         03344916                                     509290725334491    0334491600          30062500000000125900333154206000000000000000000000000000000000000000000000000000000000000000000000000000000000000000000000000000000000000000000000 N 290725MARIA IZABEL ALVES DOS SANTOS        00000000000000000000000000000000000000000C           831000083
1021243548800016931541308194113081941                         03345173                                     509290725334517    0334517300          30062500000000125900333154206000000000000000000000000000000000000000000000000000000000000000000000000000000000000000000000000000000000000000000000 N 290725MARIA IZABEL ALVES DOS SANTOS        00000000000000000000000000000000000000000C           831000084
1021243548800016931541308194113081941                         03345696                                     509290725334569    0334569600          30062500000000125900333154206000000000000000000000000000000000000000000000000000000000000000000000000000000000000000000000000000000000000000000000 N 290725EDIVANHA CONCEICAO SANTOS            00000000000000000000000000000000000000000C           831000085
1021243548800016931541308194113081941                         03346080                                     509290725334608    0334608000          30062500000000125900333154206000000000000000000000000000000000000000000000000000000000000000000000000000000000000000000000000000000000000000000000 N 290725TAINA SANTANA GOIS                   00000000000000000000000000000000000000000C           831000086
1021243548800016931541308194113081941                         03346218                                     509290725334621    0334621800          30062500000000125900333154206000000000000000000000000000000000000000000000000000000000000000000000000000000000000000000000000000000000000000000000 N 290725WEVERTON DA CONCEICAO BATISTA        00000000000000000000000000000000000000000C           831000087
1021243548800016931541308194113081941                         03346340                                     509290725334634    0334634000          30062500000000125900333154206000000000000000000000000000000000000000000000000000000000000000000000000000000000000000000000000000000000000000000000 N 290725ELISREGINA MARIA VIEIRA              00000000000000000000000000000000000000000C           831000088
1021243548800016931541308194113081941                         03347389                                     509290725334738    0334738900          30062500000000125900333154206000000000000000000000000000000000000000000000000000000000000000000000000000000000000000000000000000000000000000000000 N 290725DENISE SANTOS MODESTO                00000000000000000000000000000000000000000C           831000089
1021243548800016931541308194113081941                         03347540                                     509290725334754    0334754000          30062500000000125900333154206000000000000000000000000000000000000000000000000000000000000000000000000000000000000000000000000000000000000000000000 N 290725DEBORA MENEZES SANTOS                00000000000000000000000000000000000000000C           831000090
1021243548800016931541308194113081941                         03347672                                     509290725334767    0334767200          30062500000000125900333154206000000000000000000000000000000000000000000000000000000000000000000000000000000000000000000000000000000000000000000000 N 290725VALTER HENRIQUE DE JESUS SANTOS      00000000000000000000000000000000000000000C           831000091
1021243548800016931541308194113081941                         03349047                                     509290725334904    0334904700          30062500000000136390333154206000000000000000000000000000000000000000000000000000000000000000000000000000000000000000000000000000000000000000000000 N 290725ELIZABETH MARIA NASCIMENTO SANTOS    00000000000000000000000000000000000000000C           831000092
1021243548800016931541308194113081941                         03349160                                     509290725334916    0334916000          30062500000000125900333154206000000000000000000000000000000000000000000000000000000000000000000000000000000000000000000000000000000000000000000000 N 290725RENATA ALINE CASSIANO XAVIER         00000000000000000000000000000000000000000C           831000093
1021243548800016931541308194113081941                         03349306                                     509290725334930    0334930600          30062500000000125900333154206000000000000000000000000000000000000000000000000000000000000000000000000000000000000000000000000000000000000000000000 N 290725RENATA ALINE CASSIANO XAVIER         00000000000000000000000000000000000000000C           831000094
1021243548800016931541308194113081941                         03349969                                     509290725334996    0334996900          30062500000000125900333154206000000000000000000000000000000000000000000000000000000000000000000000000000000000000000000000000000000000000000000000 N 290725ROSELY REIS SANTOS SANTA ROSA        00000000000000000000000000000000000000000C           831000095
1021243548800016931541308194113081941                         03350355                                     509290725335035    0335035500          30062500000000125900333154206000000000000000000000000000000000000000000000000000000000000000000000000000000000000000000000000000000000000000000000 N 290725SHEILA COSTA SANTOS                  00000000000000000000000000000000000000000C           831000096
1021243548800016931541308194113081941                         03350878                                     509290725335087    0335087800          30062500000000125900333154206000000000000000000000000000000000000000000000000000000000000000000000000000000000000000000000000000000000000000000000 N 290725MARIA DA CONCEICAO SILVA             00000000000000000000000000000000000000000C           831000097
1021243548800016931541308194113081941                         03351521                                     509290725335152    0335152100          30062500000000125900333154206000000000000000000000000000000000000000000000000000000000000000000000000000000000000000000000000000000000000000000000 N 290725GABRIELA VIEIRA DOS SANTOS           00000000000000000000000000000000000000000C           831000098
1021243548800016931541308194113081941                         03351793                                     509290725335179    0335179300          30062500000000125900333154206000000000000000000000000000000000000000000000000000000000000000000000000000000000000000000000000000000000000000000000 N 290725GABRIELA VIEIRA DOS SANTOS           00000000000000000000000000000000000000000C           831000099
1021243548800016931541308194113081941                         03387976                                      03290725          0338797602051       01010100000000000000000000001000000000000000000000000000000000000000000000000000000000000000000000000000000000000000000000000000000000000000000000 N 290725                                     00000000000000000000000000000000000000000C           831000100
1021243548800016931541308194113081941                         03387984                                      03290725          0338798402051       01010100000000000000000000001000000000000000000000000000000000000000000000000000000000000000000000000000000000000000000000000000000000000000000000 N 290725                                     00000000000000000000000000000000000000000C           831000101
1021243548800016931541308194113081941                         03392830                                     506290725339283    0339283000          10072500000000125901040715006000000000011700000000000000000000000000000000000000000000000000000000000000000000000001273500000000001450000000000000 N 310725JOSIENE FARIAS CASTRO                00000000000000000000000000000000000012735C           831000102
1021243548800016931541308194113081941                         03396045                                      03290725          0339604502051       01010100000000000000000000001000000000000000000000000000000000000000000000000000000000000000000000000000000000000000000000000000000000000000000000 N 290725                                     00000000000000000000000000000000000000000C           831000103
1021243548800016931541308194113081941                         03396053                                      03290725          0339605302051       01010100000000000000000000001000000000000000000000000000000000000000000000000000000000000000000000000000000000000000000000000000000000000000000000 N 290725                                     00000000000000000000000000000000000000000C           831000104
1021243548800016931541308194113081941                         03396061                                      03290725          0339606102051       01010100000000000000000000001000000000000000000000000000000000000000000000000000000000000000000000000000000000000000000000000000000000000000000000 N 290725                                     00000000000000000000000000000000000000000C           831000105
1021243548800016931541308194113081941                         03430189                                     509290725343018    0343018900          30062500000000125900333154206000000000000000000000000000000000000000000000000000000000000000000000000000000000000000000000000000000000000000000000 N 290725NICOLAS EMANUEL SILVA PEDROSA        00000000000000000000000000000000000000000C           831000106
1021243548800016931541308194113081941                         03430960                                     509290725343096    0343096000          30062500000000125900333154206000000000000000000000000000000000000000000000000000000000000000000000000000000000000000000000000000000000000000000000 N 290725CAROLAINE NASCIMENTO PEREIRA         00000000000000000000000000000000000000000C           831000107
1021243548800016931541308194113081941                         03435610                                     509290725343561    0343561000          30062500000000125900333154206000000000000000000000000000000000000000000000000000000000000000000000000000000000000000000000000000000000000000000000 N 290725SILVANA PEREIRA                      00000000000000000000000000000000000000000C           831000108
1021243548800016931541308194113081941                         03436918                                     509290725343691    0343691800          30062500000000125900333154206000000000000000000000000000000000000000000000000000000000000000000000000000000000000000000000000000000000000000000000 N 290725TEREZINHA ROSA BEZERRA               00000000000000000000000000000000000000000C           831000109
1021243548800016931541308194113081941                         03437175                                     509290725343717    0343717500          30062500000000125900333154206000000000000000000000000000000000000000000000000000000000000000000000000000000000000000000000000000000000000000000000 N 290725MARIA LUIZA TAVARES SILVA            00000000000000000000000000000000000000000C           831000110
1021243548800016931541308194113081941                         03441482                                     506290725344148    0344148200          10082500000000125902600001006000000000011700000000000000000000000000000000000000000000000000000000000000600000000001199000000000000000000000000000 N 310725LUCIANE DOS SANTOS PONTES            00000000000000000000000000000000000011990C           831000111
1021243548800016931541308194113081941                         03446620                                     509290725344662    0344662000          30062500000000125900333154206000000000000000000000000000000000000000000000000000000000000000000000000000000000000000000000000000000000000000000000 N 290725NELMIZA DA SILVA RODRIGUES           00000000000000000000000000000000000000000C           831000112
1021243548800016931541308194113081941                         03446751                                     509290725344675    0344675100          30062500000000125900333154206000000000000000000000000000000000000000000000000000000000000000000000000000000000000000000000000000000000000000000000 N 290725ANDREIA SOUZA DOS SANTOS DA COSTA    00000000000000000000000000000000000000000C           831000113
1021243548800016931541308194113081941                         03446883                                     509290725344688    0344688300          30062500000000125900333154206000000000000000000000000000000000000000000000000000000000000000000000000000000000000000000000000000000000000000000000 N 290725ARTENIZIA DA SILVA DOS SANTOS        00000000000000000000000000000000000000000C           831000114
1021243548800016931541308194113081941                         03447405                                     509290725344740    0344740500          30062500000000125900333154206000000000000000000000000000000000000000000000000000000000000000000000000000000000000000000000000000000000000000000000 N 290725RUTH ARAUJO ALFAIA                   00000000000000000000000000000000000000000C           831000115
1021243548800016931541308194113081941                         03460797                                     509290725346079    0346079700          30062500000000125900333154206000000000000000000000000000000000000000000000000000000000000000000000000000000000000000000000000000000000000000000000 N 290725CARLA REGINA RODRIGUES PINHO         00000000000000000000000000000000000000000C           831000116
1021243548800016931541308194113081941                         03461050                                     509290725346105    0346105000          30062500000000125900333154206000000000000000000000000000000000000000000000000000000000000000000000000000000000000000000000000000000000000000000000 N 290725JEOMARA QUEIROZ CRUZ                 00000000000000000000000000000000000000000C           831000117
1021243548800016931541308194113081941                         03461181                                     509290725346118    0346118100          30062500000000125900333154206000000000000000000000000000000000000000000000000000000000000000000000000000000000000000000000000000000000000000000000 N 290725VANESSA GLORIA GOMES                 00000000000000000000000000000000000000000C           831000118
1021243548800016931541308194113081941                         03461440                                     509290725346144    0346144000          30062500000000125900333154206000000000000000000000000000000000000000000000000000000000000000000000000000000000000000000000000000000000000000000000 N 290725ANA CATARINA FERREIRA                00000000000000000000000000000000000000000C           831000119
1021243548800016931541308194113081941                         03461572                                     509290725346157    0346157200          30062500000000125900333154206000000000000000000000000000000000000000000000000000000000000000000000000000000000000000000000000000000000000000000000 N 290725ANDREZA SILVA DE SOUZA LIRA          00000000000000000000000000000000000000000C           831000120
1021243548800016931541308194113081941                         03461831                                     509290725346183    0346183100          30062500000000125900333154206000000000000000000000000000000000000000000000000000000000000000000000000000000000000000000000000000000000000000000000 N 290725EUDILENE GERALDO LOPES               00000000000000000000000000000000000000000C           831000121
1021243548800016931541308194113081941                         03462099                                     509290725346209    0346209900          30062500000000125900333154206000000000000000000000000000000000000000000000000000000000000000000000000000000000000000000000000000000000000000000000 N 290725ADSON WAGNER MOREIRA RODRIGUES DE SO 00000000000000000000000000000000000000000C           831000122
1021243548800016931541308194113081941                         03462226                                     509290725346222    0346222600          30062500000000125900333154206000000000000000000000000000000000000000000000000000000000000000000000000000000000000000000000000000000000000000000000 N 290725ADSON WAGNER MOREIRA RODRIGUES DE SO 00000000000000000000000000000000000000000C           831000123
1021243548800016931541308194113081941                         03462358                                     509290725346235    0346235800          30062500000000125900333154206000000000000000000000000000000000000000000000000000000000000000000000000000000000000000000000000000000000000000000000 N 290725ALINNE DA SILVA FROES                00000000000000000000000000000000000000000C           831000124
1021243548800016931541308194113081941                         03463230                                      03290725          0346323002051       01010100000000000000000000001000000000000000000000000000000000000000000000000000000000000000000000000000000000000000000000000000000000000000000000 N 290725                                     00000000000000000000000000000000000000000C           831000125
1021243548800016931541308194113081941                         03463265                                      03290725          0346326502051       01010100000000000000000000001000000000000000000000000000000000000000000000000000000000000000000000000000000000000000000000000000000000000000000000 N 290725                                     00000000000000000000000000000000000000000C           831000126
1021243548800016931541308194113081941                         03471519                                     509290725347151    0347151900          30062500000000125900333154206000000000000000000000000000000000000000000000000000000000000000000000000000000000000000000000000000000000000000000000 N 290725WAGNER OLIMPIO SILVA                 00000000000000000000000000000000000000000C           831000127
1021243548800016931541308194113081941                         03471640                                     509290725347164    0347164000          30062500000000125900333154206000000000000000000000000000000000000000000000000000000000000000000000000000000000000000000000000000000000000000000000 N 290725CLAUDIANE DA SILVA RODRIGUES         00000000000000000000000000000000000000000C           831000128
1021243548800016931541308194113081941                         03471772                                     509290725347177    0347177200          30062500000000125900333154206000000000000000000000000000000000000000000000000000000000000000000000000000000000000000000000000000000000000000000000 N 290725CLAUDIANE DA SILVA RODRIGUES         00000000000000000000000000000000000000000C           831000129
1021243548800016931541308194113081941                         03471900                                     509290725347190    0347190000          30062500000000125900333154206000000000000000000000000000000000000000000000000000000000000000000000000000000000000000000000000000000000000000000000 N 290725DELIANE LIMA MONTEIRO                00000000000000000000000000000000000000000C           831000130
1021243548800016931541308194113081941                         03472035                                     509290725347203    0347203500          30062500000000125900333154206000000000000000000000000000000000000000000000000000000000000000000000000000000000000000000000000000000000000000000000 N 290725FATIMA MONTEIRO DE SOUZA             00000000000000000000000000000000000000000C           831000131
1021243548800016931541308194113081941                         03472167                                     509290725347216    0347216700          30062500000000125900333154206000000000000000000000000000000000000000000000000000000000000000000000000000000000000000000000000000000000000000000000 N 290725DELIANE LIMA MONTEIRO                00000000000000000000000000000000000000000C           831000132
1021243548800016931541308194113081941                         03472299                                     509290725347229    0347229900          30062500000000125900333154206000000000000000000000000000000000000000000000000000000000000000000000000000000000000000000000000000000000000000000000 N 290725DELIANE LIMA MONTEIRO                00000000000000000000000000000000000000000C           831000133
1021243548800016931541308194113081941                         03472426                                     509290725347242    0347242600          30062500000000125900333154206000000000000000000000000000000000000000000000000000000000000000000000000000000000000000000000000000000000000000000000 N 290725DORA ALVES GONZAGA                   00000000000000000000000000000000000000000C           831000134
1021243548800016931541308194113081941                         03472680                                     509290725347268    0347268000          30062500000000125900333154206000000000000000000000000000000000000000000000000000000000000000000000000000000000000000000000000000000000000000000000 N 290725ELIANE GAMA BARROS                   00000000000000000000000000000000000000000C           831000135
1021243548800016931541308194113081941                         03472817                                     509290725347281    0347281700          30062500000000125900333154206000000000000000000000000000000000000000000000000000000000000000000000000000000000000000000000000000000000000000000000 N 290725JOSIAS FALCAO BORGES                 00000000000000000000000000000000000000000C           831000136
1021243548800016931541308194113081941                         03472949                                     509290725347294    0347294900          30062500000000125900333154206000000000000000000000000000000000000000000000000000000000000000000000000000000000000000000000000000000000000000000000 N 290725JOSIAS FALCAO BORGES                 00000000000000000000000000000000000000000C           831000137
1021243548800016931541308194113081941                         03473341                                     509290725347334    0347334100          30062500000000125900333154206000000000000000000000000000000000000000000000000000000000000000000000000000000000000000000000000000000000000000000000 N 290725JENICY PEREIRA DE SOUSA              00000000000000000000000000000000000000000C           831000138
1021243548800016931541308194113081941                         03473473                                     509290725347347    0347347300          30062500000000125900333154206000000000000000000000000000000000000000000000000000000000000000000000000000000000000000000000000000000000000000000000 N 290725FRANCISCA COSTA LEVEL                00000000000000000000000000000000000000000C           831000139
1021243548800016931541308194113081941                         03473600                                     509290725347360    0347360000          30062500000000125900333154206000000000000000000000000000000000000000000000000000000000000000000000000000000000000000000000000000000000000000000000 N 290725DERLANDIA MORAES SANTANA             00000000000000000000000000000000000000000C           831000140
1021243548800016931541308194113081941                         03476693                                     509290725347669    0347669300          30062500000000125900333154206000000000000000000000000000000000000000000000000000000000000000000000000000000000000000000000000000000000000000000000 N 290725ARINOS DO NASCIMENTO COSTA BRANCO    00000000000000000000000000000000000000000C           831000141
1021243548800016931541308194113081941                         03491994                                     509290725349199    0349199400          30062500000000125900333154206000000000000000000000000000000000000000000000000000000000000000000000000000000000000000000000000000000000000000000000 N 290725THIAGO RAMON DOS SANTOS PEREIRA      00000000000000000000000000000000000000000C           831000142
1021243548800016931541308194113081941                         03494160                                     509290725349416    0349416000          30062500000000125900333154206000000000000000000000000000000000000000000000000000000000000000000000000000000000000000000000000000000000000000000000 N 290725SEBASTIAO PINTO SANTOS               00000000000000000000000000000000000000000C           831000143
1021243548800016931541308194113081941                         03495469                                     509290725349546    0349546900          30062500000000125900333154206000000000000000000000000000000000000000000000000000000000000000000000000000000000000000000000000000000000000000000000 N 290725LUZINETE LEITE CARDOSO               00000000000000000000000000000000000000000C           831000144
1021243548800016931541308194113081941                         03497828                                      03290725          0349782802051       01010100000000000000000000001000000000000000000000000000000000000000000000000000000000000000000000000000000000000000000000000000000000000000000000 N 290725                                     00000000000000000000000000000000000000000C           831000145
1021243548800016931541308194113081941                         03497836                                      03290725          0349783602051       01010100000000000000000000001000000000000000000000000000000000000000000000000000000000000000000000000000000000000000000000000000000000000000000000 N 290725                                     00000000000000000000000000000000000000000C           831000146
1021243548800016931541308194113081941                         03499014                                     509290725349901    0349901400          30062500000000125900333154206000000000000000000000000000000000000000000000000000000000000000000000000000000000000000000000000000000000000000000000 N 290725FRANCISCA BARRETO PEREIRA            00000000000000000000000000000000000000000C           831000147
1021243548800016931541308194113081941                         03499154                                     509290725349915    0349915400          30062500000000125900333154206000000000000000000000000000000000000000000000000000000000000000000000000000000000000000000000000000000000000000000000 N 290725MARIA ALCIDEMERE QUEIROZ DE SOUZA    00000000000000000000000000000000000000000C           831000148
1021243548800016931541308194113081941                         03499294                                     509290725349929    0349929400          30062500000000125900333154206000000000000000000000000000000000000000000000000000000000000000000000000000000000000000000000000000000000000000000000 N 290725DEENE MATOS DA SILVA                 00000000000000000000000000000000000000000C           831000149
1021243548800016931541308194113081941                         03499430                                     509290725349943    0349943000          30062500000000125900333154206000000000000000000000000000000000000000000000000000000000000000000000000000000000000000000000000000000000000000000000 N 290725DEENE MATOS DA SILVA                 00000000000000000000000000000000000000000C           831000150
1021243548800016931541308194113081941                         03500560                                     509290725350056    0350056000          30062500000000125900333154206000000000000000000000000000000000000000000000000000000000000000000000000000000000000000000000000000000000000000000000 N 290725JOSE AUGUSTO LIMA HOLANDA            00000000000000000000000000000000000000000C           831000151
1021243548800016931541308194113081941                         03500691                                     509290725350069    0350069100          30062500000000125900333154206000000000000000000000000000000000000000000000000000000000000000000000000000000000000000000000000000000000000000000000 N 290725ALDEVIO FERNANDES DO NASCIMENTO      00000000000000000000000000000000000000000C           831000152
1021243548800016931541308194113081941                         03500845                                     509290725350084    0350084500          30062500000000125900333154206000000000000000000000000000000000000000000000000000000000000000000000000000000000000000000000000000000000000000000000 N 290725LUCIANA SANTANA PINHEIRO             00000000000000000000000000000000000000000C           831000153
1021243548800016931541308194113081941                         03500977                                     509290725350097    0350097700          30062500000000125900333154206000000000000000000000000000000000000000000000000000000000000000000000000000000000000000000000000000000000000000000000 N 290725JAQUELINE SILVA DE BRITO             00000000000000000000000000000000000000000C           831000154
1021243548800016931541308194113081941                         03501230                                     509290725350123    0350123000          30062500000000125900333154206000000000000000000000000000000000000000000000000000000000000000000000000000000000000000000000000000000000000000000000 N 290725NILVANDA LIRA FLORES                 00000000000000000000000000000000000000000C           831000155
1021243548800016931541308194113081941                         03501361                                     509290725350136    0350136100          30062500000000125900333154206000000000000000000000000000000000000000000000000000000000000000000000000000000000000000000000000000000000000000000000 N 290725NAYRA LIRA FLORES                    00000000000000000000000000000000000000000C           831000156
1021243548800016931541308194113081941                         03501493                                     509290725350149    0350149300          30062500000000125900333154206000000000000000000000000000000000000000000000000000000000000000000000000000000000000000000000000000000000000000000000 N 290725GRACINETE DAS GRACAS DE SOUZA SANTOS 00000000000000000000000000000000000000000C           831000157
1021243548800016931541308194113081941                         03501884                                     509290725350188    0350188400          30062500000000125900333154206000000000000000000000000000000000000000000000000000000000000000000000000000000000000000000000000000000000000000000000 N 290725GEISE SILVA DE ANDRADE               00000000000000000000000000000000000000000C           831000158
1021243548800016931541308194113081941                         03502147                                     509290725350214    0350214700          30062500000000125900333154206000000000000000000000000000000000000000000000000000000000000000000000000000000000000000000000000000000000000000000000 N 290725FRANCIDALVA LESSE BENTO              00000000000000000000000000000000000000000C           831000159
1021243548800016931541308194113081941                         03502279                                     509290725350227    0350227900          30062500000000125900333154206000000000000000000000000000000000000000000000000000000000000000000000000000000000000000000000000000000000000000000000 N 290725MARINA LIMA DE MORAES                00000000000000000000000000000000000000000C           831000160
1021243548800016931541308194113081941                         03502406                                     509290725350240    0350240600          30062500000000125900333154206000000000000000000000000000000000000000000000000000000000000000000000000000000000000000000000000000000000000000000000 N 290725MARINA LIMA DE MORAES                00000000000000000000000000000000000000000C           831000161
1021243548800016931541308194113081941                         03502538                                     509290725350253    0350253800          30062500000000125900333154206000000000000000000000000000000000000000000000000000000000000000000000000000000000000000000000000000000000000000000000 N 290725MARINEIDE ALVES RODRIGUES            00000000000000000000000000000000000000000C           831000162
1021243548800016931541308194113081941                         03502791                                     509290725350279    0350279100          30062500000000125900333154206000000000000000000000000000000000000000000000000000000000000000000000000000000000000000000000000000000000000000000000 N 290725VANDERLANE MAGALHAES RAMOS           00000000000000000000000000000000000000000C           831000163
1021243548800016931541308194113081941                         03502929                                     509290725350292    0350292900          30062500000000125900333154206000000000000000000000000000000000000000000000000000000000000000000000000000000000000000000000000000000000000000000000 N 290725ADRIELLY SANTOS DE FREITAS           00000000000000000000000000000000000000000C           831000164
1021243548800016931541308194113081941                         03503186                                     509290725350318    0350318600          30062500000000125900333154206000000000000000000000000000000000000000000000000000000000000000000000000000000000000000000000000000000000000000000000 N 290725ADRIELLY SANTOS DE FREITAS           00000000000000000000000000000000000000000C           831000165
1021243548800016931541308194113081941                         03503445                                     509290725350344    0350344500          30062500000000125900333154206000000000000000000000000000000000000000000000000000000000000000000000000000000000000000000000000000000000000000000000 N 290725SIMONE SALES DA SILVA                00000000000000000000000000000000000000000C           831000166
1021243548800016931541308194113081941                         03503577                                     509290725350357    0350357700          30062500000000125900333154206000000000000000000000000000000000000000000000000000000000000000000000000000000000000000000000000000000000000000000000 N 290725NAZARE ARAUJO DOS SANTOS             00000000000000000000000000000000000000000C           831000167
1021243548800016931541308194113081941                         03503704                                     509290725350370    0350370400          30062500000000125900333154206000000000000000000000000000000000000000000000000000000000000000000000000000000000000000000000000000000000000000000000 N 290725JOSE FRANCISCO DA SILVA              00000000000000000000000000000000000000000C           831000168
1021243548800016931541308194113081941                         03503836                                     509290725350383    0350383600          30062500000000125900333154206000000000000000000000000000000000000000000000000000000000000000000000000000000000000000000000000000000000000000000000 N 290725ELIANE CRISTINA SILVA DA SILVA       00000000000000000000000000000000000000000C           831000169
1021243548800016931541308194113081941                         03504093                                     509290725350409    0350409300          30062500000000125900333154206000000000000000000000000000000000000000000000000000000000000000000000000000000000000000000000000000000000000000000000 N 290725ANDREZA ALVES DOS SANTOS             00000000000000000000000000000000000000000C           831000170
1021243548800016931541308194113081941                         03504484                                     509290725350448    0350448400          30062500000000125900333154206000000000000000000000000000000000000000000000000000000000000000000000000000000000000000000000000000000000000000000000 N 290725SHEILA MARTINS ALVES                 00000000000000000000000000000000000000000C           831000171
1021243548800016931541308194113081941                         03504611                                     509290725350461    0350461100          30062500000000125900333154206000000000000000000000000000000000000000000000000000000000000000000000000000000000000000000000000000000000000000000000 N 290725SHEILA MARTINS ALVES                 00000000000000000000000000000000000000000C           831000172
1021243548800016931541308194113081941                         03505138                                     509290725350513    0350513800          30062500000000125900333154206000000000000000000000000000000000000000000000000000000000000000000000000000000000000000000000000000000000000000000000 N 290725NAZARE FIGUEIREDO LIMA               00000000000000000000000000000000000000000C           831000173
1021243548800016931541308194113081941                         03505260                                     509290725350526    0350526000          30062500000000125900333154206000000000000000000000000000000000000000000000000000000000000000000000000000000000000000000000000000000000000000000000 N 290725NAZARE FIGUEIREDO LIMA               00000000000000000000000000000000000000000C           831000174
1021243548800016931541308194113081941                         03505391                                     509290725350539    0350539100          30062500000000125900333154206000000000000000000000000000000000000000000000000000000000000000000000000000000000000000000000000000000000000000000000 N 290725ROSILANE FELIPE ESTRAL               00000000000000000000000000000000000000000C           831000175
1021243548800016931541308194113081941                         03505529                                     509290725350552    0350552900          30062500000000125900333154206000000000000000000000000000000000000000000000000000000000000000000000000000000000000000000000000000000000000000000000 N 290725ELISANGELA COSTA PORTELA             00000000000000000000000000000000000000000C           831000176
1021243548800016931541308194113081941                         03505650                                     509290725350565    0350565000          30062500000000125900333154206000000000000000000000000000000000000000000000000000000000000000000000000000000000000000000000000000000000000000000000 N 290725ITAMARA BAHIA DE SALES               00000000000000000000000000000000000000000C           831000177
1021243548800016931541308194113081941                         03505782                                     509290725350578    0350578200          30062500000000125900333154206000000000000000000000000000000000000000000000000000000000000000000000000000000000000000000000000000000000000000000000 N 290725TAILA RAISSA ROSENDO DE SOUZA        00000000000000000000000000000000000000000C           831000178
1021243548800016931541308194113081941                         03505910                                     509290725350591    0350591000          30062500000000125900333154206000000000000000000000000000000000000000000000000000000000000000000000000000000000000000000000000000000000000000000000 N 290725JOSE FONSECA DE OLIVEIRA             00000000000000000000000000000000000000000C           831000179
1021243548800016931541308194113081941                         03506568                                     509290725350656    0350656800          30062500000000125900333154206000000000000000000000000000000000000000000000000000000000000000000000000000000000000000000000000000000000000000000000 N 290725ELISNELSA CALDEIRA DE AGUIAR         00000000000000000000000000000000000000000C           831000180
1021243548800016931541308194113081941                         03506690                                     509290725350669    0350669000          30062500000000125900333154206000000000000000000000000000000000000000000000000000000000000000000000000000000000000000000000000000000000000000000000 N 290725MARIA JOSE DE SOUZA SOARES           00000000000000000000000000000000000000000C           831000181
1021243548800016931541308194113081941                         03506827                                     509290725350682    0350682700          30062500000000125900333154206000000000000000000000000000000000000000000000000000000000000000000000000000000000000000000000000000000000000000000000 N 290725MARINETE LIRA PICANCO                00000000000000000000000000000000000000000C           831000182
1021243548800016931541308194113081941                         03508188                                     509290725350818    0350818800          30062500000000125900333154206000000000000000000000000000000000000000000000000000000000000000000000000000000000000000000000000000000000000000000000 N 290725FABIANA FERREIRA DAMASCENO DA SILVA  00000000000000000000000000000000000000000C           831000183
1021243548800016931541308194113081941                         03508331                                     509290725350833    0350833100          30062500000000125900333154206000000000000000000000000000000000000000000000000000000000000000000000000000000000000000000000000000000000000000000000 N 290725ZILANDEA DE SOUZA MORAES             00000000000000000000000000000000000000000C           831000184
1021243548800016931541308194113081941                         03508471                                     509290725350847    0350847100          30062500000000125900333154206000000000000000000000000000000000000000000000000000000000000000000000000000000000000000000000000000000000000000000000 N 290725ZILMAR SENA PRATES                   00000000000000000000000000000000000000000C           831000185
1021243548800016931541308194113081941                         03508617                                     509290725350861    0350861700          30062500000000125900333154206000000000000000000000000000000000000000000000000000000000000000000000000000000000000000000000000000000000000000000000 N 290725VALCEMIR NASCIMENTO DA SILVA         00000000000000000000000000000000000000000C           831000186
1021243548800016931541308194113081941                         03508757                                     509290725350875    0350875700          30062500000000125900333154206000000000000000000000000000000000000000000000000000000000000000000000000000000000000000000000000000000000000000000000 N 290725ELZILANE DO NASCIMENTO DE SOUZA      00000000000000000000000000000000000000000C           831000187
1021243548800016931541308194113081941                         03508897                                     509290725350889    0350889700          30062500000000125900333154206000000000000000000000000000000000000000000000000000000000000000000000000000000000000000000000000000000000000000000000 N 290725MARLI DA ROCHA MARINHO               00000000000000000000000000000000000000000C           831000188
1021243548800016931541308194113081941                         03509052                                     509290725350905    0350905200          30062500000000125900333154206000000000000000000000000000000000000000000000000000000000000000000000000000000000000000000000000000000000000000000000 N 290725MARLENE MARICAUA DA ROCHA            00000000000000000000000000000000000000000C           831000189
1021243548800016931541308194113081941                         03509311                                     509290725350931    0350931100          30062500000000125900333154206000000000000000000000000000000000000000000000000000000000000000000000000000000000000000000000000000000000000000000000 N 290725ISMAEL DA SILVA GUIMARAES            00000000000000000000000000000000000000000C           831000190
1021243548800016931541308194113081941                         03509575                                     509290725350957    0350957500          30062500000000125900333154206000000000000000000000000000000000000000000000000000000000000000000000000000000000000000000000000000000000000000000000 N 290725EUDALIA DE SOUZA CARDOSO             00000000000000000000000000000000000000000C           831000191
1021243548800016931541308194113081941                         03509702                                     509290725350970    0350970200          30062500000000125900333154206000000000000000000000000000000000000000000000000000000000000000000000000000000000000000000000000000000000000000000000 N 290725FRANCISCA ALMEIDA LIMA               00000000000000000000000000000000000000000C           831000192
1021243548800016931541308194113081941                         03513327                                     509290725351332    0351332700          30062500000000125900333154206000000000000000000000000000000000000000000000000000000000000000000000000000000000000000000000000000000000000000000000 N 290725DINAIA SANTANA SILVA                 00000000000000000000000000000000000000000C           831000193
1021243548800016931541308194113081941                         03513459                                     509290725351345    0351345900          30062500000000125900333154206000000000000000000000000000000000000000000000000000000000000000000000000000000000000000000000000000000000000000000000 N 290725SEBASTIANA SILVA DE ARAUJO           00000000000000000000000000000000000000000C           831000194
1021243548800016931541308194113081941                         03513580                                     509290725351358    0351358000          30062500000000125900333154206000000000000000000000000000000000000000000000000000000000000000000000000000000000000000000000000000000000000000000000 N 290725FRANCISCO LIMA DE AZEVEDO            00000000000000000000000000000000000000000C           831000195
1021243548800016931541308194113081941                         03513718                                     509290725351371    0351371800          30062500000000125900333154206000000000000000000000000000000000000000000000000000000000000000000000000000000000000000000000000000000000000000000000 N 290725SEBASTIANA SILVA DE ARAUJO           00000000000000000000000000000000000000000C           831000196
1021243548800016931541308194113081941                         03513840                                     509290725351384    0351384000          30062500000000125900333154206000000000000000000000000000000000000000000000000000000000000000000000000000000000000000000000000000000000000000000000 N 290725DAIANE ARAUJO DA SILVA               00000000000000000000000000000000000000000C           831000197
1021243548800016931541308194113081941                         03513971                                     509290725351397    0351397100          30062500000000125900333154206000000000000000000000000000000000000000000000000000000000000000000000000000000000000000000000000000000000000000000000 N 290725GILMAR BATISTA LIMA                  00000000000000000000000000000000000000000C           831000198
1021243548800016931541308194113081941                         03514102                                     509290725351410    0351410200          30062500000000125900333154206000000000000000000000000000000000000000000000000000000000000000000000000000000000000000000000000000000000000000000000 N 290725ELIETE VIEIRA DA SILVA               00000000000000000000000000000000000000000C           831000199
1021243548800016931541308194113081941                         03514366                                     509290725351436    0351436600          30062500000000125900333154206000000000000000000000000000000000000000000000000000000000000000000000000000000000000000000000000000000000000000000000 N 290725SIUDIA MORAES DA SILVA               00000000000000000000000000000000000000000C           831000200
1021243548800016931541308194113081941                         03514625                                     509290725351462    0351462500          30062500000000125900333154206000000000000000000000000000000000000000000000000000000000000000000000000000000000000000000000000000000000000000000000 N 290725NAILSON DE SOUZA TEIXEIRA            00000000000000000000000000000000000000000C           831000201
1021243548800016931541308194113081941                         03514757                                     509290725351475    0351475700          30062500000000125900333154206000000000000000000000000000000000000000000000000000000000000000000000000000000000000000000000000000000000000000000000 N 290725ANDRE FABIANO DOS SANTOS TIAGO       00000000000000000000000000000000000000000C           831000202
1021243548800016931541308194113081941                         03514889                                     509290725351488    0351488900          30062500000000125900333154206000000000000000000000000000000000000000000000000000000000000000000000000000000000000000000000000000000000000000000000 N 290725FRANCIVANE RODRIGUES DE OLIVEIRA     00000000000000000000000000000000000000000C           831000203
1021243548800016931541308194113081941                         03515010                                     509290725351501    0351501000          30062500000000125900333154206000000000000000000000000000000000000000000000000000000000000000000000000000000000000000000000000000000000000000000000 N 290725FRANCIVANE RODRIGUES DE OLIVEIRA     00000000000000000000000000000000000000000C           831000204
1021243548800016931541308194113081941                         03515141                                     509290725351514    0351514100          30062500000000125900333154206000000000000000000000000000000000000000000000000000000000000000000000000000000000000000000000000000000000000000000000 N 290725AUGUSTO TORRES BEZERRA               00000000000000000000000000000000000000000C           831000205
1021243548800016931541308194113081941                         03515532                                     509290725351553    0351553200          30062500000000125900333154206000000000000000000000000000000000000000000000000000000000000000000000000000000000000000000000000000000000000000000000 N 290725LUCIANE MATOS DE CARVALHO            00000000000000000000000000000000000000000C           831000206
1021243548800016931541308194113081941                         03515664                                     509290725351566    0351566400          30062500000000125900333154206000000000000000000000000000000000000000000000000000000000000000000000000000000000000000000000000000000000000000000000 N 290725CRISTIANA LOPES MAGALHAES            00000000000000000000000000000000000000000C           831000207
1021243548800016931541308194113081941                         03515923                                     509290725351592    0351592300          30062500000000125900333154206000000000000000000000000000000000000000000000000000000000000000000000000000000000000000000000000000000000000000000000 N 290725JOSE OZAQUE DA SILVA VEQUENNER       00000000000000000000000000000000000000000C           831000208
1021243548800016931541308194113081941                         03516520                                     509290725351652    0351652000          30062500000000125900333154206000000000000000000000000000000000000000000000000000000000000000000000000000000000000000000000000000000000000000000000 N 290725VALDENORA CASTRO CRUZ                00000000000000000000000000000000000000000C           831000209
1021243548800016931541308194113081941                         03516652                                     509290725351665    0351665200          30062500000000125900333154206000000000000000000000000000000000000000000000000000000000000000000000000000000000000000000000000000000000000000000000 N 290725JEAN LUCCAS SAMPAIO DA SILVA COSTA   00000000000000000000000000000000000000000C           831000210
1021243548800016931541308194113081941                         03517047                                     509290725351704    0351704700          30062500000000125900333154206000000000000000000000000000000000000000000000000000000000000000000000000000000000000000000000000000000000000000000000 N 290725JOAO NOGUEIRA DOS SANTOS             00000000000000000000000000000000000000000C           831000211
1021243548800016931541308194113081941                         03517179                                     509290725351717    0351717900          30062500000000125900333154206000000000000000000000000000000000000000000000000000000000000000000000000000000000000000000000000000000000000000000000 N 290725JOELZA ANDRADE DE SOUZA              00000000000000000000000000000000000000000C           831000212
1021243548800016931541308194113081941                         03517306                                     509290725351730    0351730600          30062500000000125900333154206000000000000000000000000000000000000000000000000000000000000000000000000000000000000000000000000000000000000000000000 N 290725KAMILLA BEZERRA DA SILVA             00000000000000000000000000000000000000000C           831000213
1021243548800016931541308194113081941                         03517560                                     509290725351756    0351756000          30062500000000125900333154206000000000000000000000000000000000000000000000000000000000000000000000000000000000000000000000000000000000000000000000 N 290725ANA CLAUDIA VASCONCELOS DA SILVA     00000000000000000000000000000000000000000C           831000214
1021243548800016931541308194113081941                         03517829                                     509290725351782    0351782900          30062500000000125900333154206000000000000000000000000000000000000000000000000000000000000000000000000000000000000000000000000000000000000000000000 N 290725JUCELIA CORDEIRO DA SILVA            00000000000000000000000000000000000000000C           831000215
1021243548800016931541308194113081941                         03517950                                     509290725351795    0351795000          30062500000000125900333154206000000000000000000000000000000000000000000000000000000000000000000000000000000000000000000000000000000000000000000000 N 290725NAIRA CARVALHO PACHECO               00000000000000000000000000000000000000000C           831000216
1021243548800016931541308194113081941                         03518086                                     509290725351808    0351808600          30062500000000125900333154206000000000000000000000000000000000000000000000000000000000000000000000000000000000000000000000000000000000000000000000 N 290725MIQUEIAS PINHEIRO LOPES              00000000000000000000000000000000000000000C           831000217
1021243548800016931541308194113081941                         03518213                                     509290725351821    0351821300          30062500000000125900333154206000000000000000000000000000000000000000000000000000000000000000000000000000000000000000000000000000000000000000000000 N 290725FRANCISCO MILDO FERREIRA DE OLIVEIRA 00000000000000000000000000000000000000000C           831000218
1021243548800016931541308194113081941                         03518477                                     509290725351847    0351847700          30062500000000125900333154206000000000000000000000000000000000000000000000000000000000000000000000000000000000000000000000000000000000000000000000 N 290725EDILEIA NASCIMENTO DA SILVA          00000000000000000000000000000000000000000C           831000219
1021243548800016931541308194113081941                         03518604                                     509290725351860    0351860400          30062500000000125900333154206000000000000000000000000000000000000000000000000000000000000000000000000000000000000000000000000000000000000000000000 N 290725JULIANA SILVA DOS SANTOS             00000000000000000000000000000000000000000C           831000220
1021243548800016931541308194113081941                         03518736                                     509290725351873    0351873600          30062500000000125900333154206000000000000000000000000000000000000000000000000000000000000000000000000000000000000000000000000000000000000000000000 N 290725OSIAS ROCHA DE ARAUJO                00000000000000000000000000000000000000000C           831000221
1021243548800016931541308194113081941                         03518868                                     509290725351886    0351886800          30062500000000125900333154206000000000000000000000000000000000000000000000000000000000000000000000000000000000000000000000000000000000000000000000 N 290725FRANCISCO LIMA DE AZEVEDO            00000000000000000000000000000000000000000C           831000222
1021243548800016931541308194113081941                         03518990                                     509290725351899    0351899000          30062500000000125900333154206000000000000000000000000000000000000000000000000000000000000000000000000000000000000000000000000000000000000000000000 N 290725SIUDIA MORAES DA SILVA               00000000000000000000000000000000000000000C           831000223
1021243548800016931541308194113081941                         03519252                                     509290725351925    0351925200          30062500000000125900333154206000000000000000000000000000000000000000000000000000000000000000000000000000000000000000000000000000000000000000000000 N 290725ALEXSANDRA SEBASTIANA MARQUES VASCON 00000000000000000000000000000000000000000C           831000224
1021243548800016931541308194113081941                         03519384                                     509290725351938    0351938400          30062500000000125900333154206000000000000000000000000000000000000000000000000000000000000000000000000000000000000000000000000000000000000000000000 N 290725DEISIANE DA SILVA BATISTA            00000000000000000000000000000000000000000C           831000225
1021243548800016931541308194113081941                         03519511                                     509290725351951    0351951100          30062500000000125900333154206000000000000000000000000000000000000000000000000000000000000000000000000000000000000000000000000000000000000000000000 N 290725ROSILANE LIRA DA SILVA               00000000000000000000000000000000000000000C           831000226
1021243548800016931541308194113081941                         03519643                                     509290725351964    0351964300          30062500000000125900333154206000000000000000000000000000000000000000000000000000000000000000000000000000000000000000000000000000000000000000000000 N 290725GISELE BRITO DA SILVA                00000000000000000000000000000000000000000C           831000227
1021243548800016931541308194113081941                         03519783                                     509290725351978    0351978300          30062500000000125900333154206000000000000000000000000000000000000000000000000000000000000000000000000000000000000000000000000000000000000000000000 N 290725WALLACE RIBEIRO ALEXANDRE DE SOUZA   00000000000000000000000000000000000000000C           831000228
1021243548800016931541308194113081941                         03520170                                     509290725352017    0352017000          30062500000000125900333154206000000000000000000000000000000000000000000000000000000000000000000000000000000000000000000000000000000000000000000000 N 290725JOELZA ANDRADE DE SOUZA              00000000000000000000000000000000000000000C           831000229
1021243548800016931541308194113081941                         03520579                                     509290725352057    0352057900          30062500000000125900333154206000000000000000000000000000000000000000000000000000000000000000000000000000000000000000000000000000000000000000000000 N 290725ROSICLEIA DA SILVA GOMES             00000000000000000000000000000000000000000C           831000230
1021243548800016931541308194113081941                         03520846                                     509290725352084    0352084600          30062500000000125900333154206000000000000000000000000000000000000000000000000000000000000000000000000000000000000000000000000000000000000000000000 N 290725ROSINETE DE OLIVEIRA GUEDES          00000000000000000000000000000000000000000C           831000231
1021243548800016931541308194113081941                         03520994                                     509290725352099    0352099400          30062500000000125900333154206000000000000000000000000000000000000000000000000000000000000000000000000000000000000000000000000000000000000000000000 N 290725JOELMA SALES MAIA                    00000000000000000000000000000000000000000C           831000232
1021243548800016931541308194113081941                         03521257                                     509290725352125    0352125700          30062500000000125900333154206000000000000000000000000000000000000000000000000000000000000000000000000000000000000000000000000000000000000000000000 N 290725DIOMARA DE OLIVEIRA GOMES            00000000000000000000000000000000000000000C           831000233
1021243548800016931541308194113081941                         03521389                                     509290725352138    0352138900          30062500000000125900333154206000000000000000000000000000000000000000000000000000000000000000000000000000000000000000000000000000000000000000000000 N 290725ROSIANE SANTOS DA SILVA              00000000000000000000000000000000000000000C           831000234
1021243548800016931541308194113081941                         03521516                                     509290725352151    0352151600          30062500000000125900333154206000000000000000000000000000000000000000000000000000000000000000000000000000000000000000000000000000000000000000000000 N 290725MARCIA VIEIRA DA COSTA               00000000000000000000000000000000000000000C           831000235
1021243548800016931541308194113081941                         03521648                                     509290725352164    0352164800          30062500000000125900333154206000000000000000000000000000000000000000000000000000000000000000000000000000000000000000000000000000000000000000000000 N 290725JANAINA OLIVEIRA MARQUES             00000000000000000000000000000000000000000C           831000236
1021243548800016931541308194113081941                         03521770                                     509290725352177    0352177000          30062500000000125900333154206000000000000000000000000000000000000000000000000000000000000000000000000000000000000000000000000000000000000000000000 N 290725ROSANA DA SILVA GOMES                00000000000000000000000000000000000000000C           831000237
1021243548800016931541308194113081941                         03521907                                     509290725352190    0352190700          30062500000000125900333154206000000000000000000000000000000000000000000000000000000000000000000000000000000000000000000000000000000000000000000000 N 290725JOSIANE BRITO DA SILVA               00000000000000000000000000000000000000000C           831000238
1021243548800016931541308194113081941                         03522032                                     509290725352203    0352203200          30062500000000125900333154206000000000000000000000000000000000000000000000000000000000000000000000000000000000000000000000000000000000000000000000 N 290725FRANCINEIA SILVA DO NASCIMENTO RODRI 00000000000000000000000000000000000000000C           831000239
1021243548800016931541308194113081941                         03522164                                     509290725352216    0352216400          30062500000000125900333154206000000000000000000000000000000000000000000000000000000000000000000000000000000000000000000000000000000000000000000000 N 290725GEIZEANNE DA SILVA E SILVA           00000000000000000000000000000000000000000C           831000240
1021243548800016931541308194113081941                         03522296                                     509290725352229    0352229600          30062500000000125900333154206000000000000000000000000000000000000000000000000000000000000000000000000000000000000000000000000000000000000000000000 N 290725GEIZEANNE DA SILVA E SILVA           00000000000000000000000000000000000000000C           831000241
1021243548800016931541308194113081941                         03522423                                     509290725352242    0352242300          30062500000000125900333154206000000000000000000000000000000000000000000000000000000000000000000000000000000000000000000000000000000000000000000000 N 290725ALEXANDRE DE SOUZA PEREIRA           00000000000000000000000000000000000000000C           831000242
1021243548800016931541308194113081941                         03522555                                     509290725352255    0352255500          30062500000000125900333154206000000000000000000000000000000000000000000000000000000000000000000000000000000000000000000000000000000000000000000000 N 290725JOSE FRANCISCO DA SILVA              00000000000000000000000000000000000000000C           831000243
1021243548800016931541308194113081941                         03522814                                     509290725352281    0352281400          30062500000000125900333154206000000000000000000000000000000000000000000000000000000000000000000000000000000000000000000000000000000000000000000000 N 290725MARIA IZABEL DA SILVA GONCALVES      00000000000000000000000000000000000000000C           831000244
1021243548800016931541308194113081941                         03522946                                     509290725352294    0352294600          30062500000000125900333154206000000000000000000000000000000000000000000000000000000000000000000000000000000000000000000000000000000000000000000000 N 290725EDNA ABENSUR LEITE                   00000000000000000000000000000000000000000C           831000245
1021243548800016931541308194113081941                         03523071                                     509290725352307    0352307100          30062500000000125900333154206000000000000000000000000000000000000000000000000000000000000000000000000000000000000000000000000000000000000000000000 N 290725RAISSA MOTA DE JESUS                 00000000000000000000000000000000000000000C           831000246
1021243548800016931541308194113081941                         03523209                                     509290725352320    0352320900          30062500000000125900333154206000000000000000000000000000000000000000000000000000000000000000000000000000000000000000000000000000000000000000000000 N 290725JOELMA DA SILVA SOUZA                00000000000000000000000000000000000000000C           831000247
1021243548800016931541308194113081941                         03523330                                     509290725352333    0352333000          30062500000000125900333154206000000000000000000000000000000000000000000000000000000000000000000000000000000000000000000000000000000000000000000000 N 290725JACQUELINE SALES DA SILVA            00000000000000000000000000000000000000000C           831000248
1021243548800016931541308194113081941                         03523462                                     509290725352346    0352346200          30062500000000125900333154206000000000000000000000000000000000000000000000000000000000000000000000000000000000000000000000000000000000000000000000 N 290725ELISANGELA DOS SANTOS ARAUJO         00000000000000000000000000000000000000000C           831000249
