03300000        2042251504000124152290130009076     008404399           ASSOCIACAO EDUCACIONAL E SOCIABANCO SANTANDER (BRASIL) S/A            228102024      001698040                                                                          
03303651T01  040 2042251504000124008404399           152290130009076     ASSOCIACAO EDUCACIONAL E SOCIA                                                                                0000169828102024                                         
0330365300003T 02152290130009076        000035426995020000000354269951811202400000000000500003315229354269950                001000008914253732VIVIANE CRISTINA DA SILVA SANTOS        0130009076000000000000000P100000000                      
0330365300004U 020000000000000000000000000000000000000000000000000000000000000000000000000000000000000000000000000000000000000000000000002810202428102024000000000000000000000000000                              000                           
0330365300005Y 0203                                                              pix.santander.com.br/qr/v2/cobv/48bbcd90-ec0c-4b89-a8be-6dbe646fbf1d         YKP008404399000035426995028102024                                                 
03303655         0000670036500000000020594939900000000000000000000000000000000000000000000000000000000000000000000000001685                                                                                                                     
03303659         000001000071                                                                                                                                                                                                                   
